{
  "contractName": "NFTArt",
  "abi": [
    {
      "inputs": [
        {
          "internalType": "string",
          "name": "name",
          "type": "string"
        },
        {
          "internalType": "string",
          "name": "symbol",
          "type": "string"
        },
        {
          "internalType": "address",
          "name": "ownerAddress",
          "type": "address"
        }
      ],
      "stateMutability": "nonpayable",
      "type": "constructor"
    },
    {
      "anonymous": false,
      "inputs": [
        {
          "indexed": true,
          "internalType": "address",
          "name": "owner",
          "type": "address"
        },
        {
          "indexed": true,
          "internalType": "address",
          "name": "approved",
          "type": "address"
        },
        {
          "indexed": true,
          "internalType": "uint256",
          "name": "tokenId",
          "type": "uint256"
        }
      ],
      "name": "Approval",
      "type": "event"
    },
    {
      "anonymous": false,
      "inputs": [
        {
          "indexed": true,
          "internalType": "address",
          "name": "owner",
          "type": "address"
        },
        {
          "indexed": true,
          "internalType": "address",
          "name": "operator",
          "type": "address"
        },
        {
          "indexed": false,
          "internalType": "bool",
          "name": "approved",
          "type": "bool"
        }
      ],
      "name": "ApprovalForAll",
      "type": "event"
    },
    {
      "anonymous": false,
      "inputs": [
        {
          "indexed": true,
          "internalType": "address",
          "name": "previousOwner",
          "type": "address"
        },
        {
          "indexed": true,
          "internalType": "address",
          "name": "newOwner",
          "type": "address"
        }
      ],
      "name": "OwnershipTransferred",
      "type": "event"
    },
    {
      "anonymous": false,
      "inputs": [
        {
          "indexed": false,
          "internalType": "address",
          "name": "account",
          "type": "address"
        }
      ],
      "name": "Paused",
      "type": "event"
    },
    {
      "anonymous": false,
      "inputs": [
        {
          "indexed": true,
          "internalType": "address",
          "name": "from",
          "type": "address"
        },
        {
          "indexed": true,
          "internalType": "address",
          "name": "to",
          "type": "address"
        },
        {
          "indexed": true,
          "internalType": "uint256",
          "name": "tokenId",
          "type": "uint256"
        }
      ],
      "name": "Transfer",
      "type": "event"
    },
    {
      "anonymous": false,
      "inputs": [
        {
          "indexed": false,
          "internalType": "address",
          "name": "account",
          "type": "address"
        }
      ],
      "name": "Unpaused",
      "type": "event"
    },
    {
      "anonymous": false,
      "inputs": [
        {
          "indexed": true,
          "internalType": "uint256",
          "name": "id",
          "type": "uint256"
        }
      ],
      "name": "greet",
      "type": "event"
    },
    {
      "inputs": [],
      "name": "MAX_SUPPLY",
      "outputs": [
        {
          "internalType": "uint256",
          "name": "",
          "type": "uint256"
        }
      ],
      "stateMutability": "view",
      "type": "function",
      "constant": true
    },
    {
      "inputs": [
        {
          "internalType": "address",
          "name": "to",
          "type": "address"
        },
        {
          "internalType": "uint256",
          "name": "tokenId",
          "type": "uint256"
        }
      ],
      "name": "approve",
      "outputs": [],
      "stateMutability": "nonpayable",
      "type": "function"
    },
    {
      "inputs": [
        {
          "internalType": "address",
          "name": "owner",
          "type": "address"
        }
      ],
      "name": "balanceOf",
      "outputs": [
        {
          "internalType": "uint256",
          "name": "",
          "type": "uint256"
        }
      ],
      "stateMutability": "view",
      "type": "function",
      "constant": true
    },
    {
      "inputs": [],
      "name": "baseTokenURI",
      "outputs": [
        {
          "internalType": "string",
          "name": "",
          "type": "string"
        }
      ],
      "stateMutability": "view",
      "type": "function",
      "constant": true
    },
    {
      "inputs": [
        {
          "internalType": "uint256",
          "name": "tokenId",
          "type": "uint256"
        }
      ],
      "name": "burn",
      "outputs": [],
      "stateMutability": "nonpayable",
      "type": "function"
    },
    {
      "inputs": [
        {
          "internalType": "uint256",
          "name": "tokenId",
          "type": "uint256"
        }
      ],
      "name": "getApproved",
      "outputs": [
        {
          "internalType": "address",
          "name": "",
          "type": "address"
        }
      ],
      "stateMutability": "view",
      "type": "function",
      "constant": true
    },
    {
      "inputs": [
        {
          "internalType": "address",
          "name": "owner",
          "type": "address"
        },
        {
          "internalType": "address",
          "name": "operator",
          "type": "address"
        }
      ],
      "name": "isApprovedForAll",
      "outputs": [
        {
          "internalType": "bool",
          "name": "",
          "type": "bool"
        }
      ],
      "stateMutability": "view",
      "type": "function",
      "constant": true
    },
    {
      "inputs": [],
      "name": "name",
      "outputs": [
        {
          "internalType": "string",
          "name": "",
          "type": "string"
        }
      ],
      "stateMutability": "view",
      "type": "function",
      "constant": true
    },
    {
      "inputs": [
        {
          "internalType": "uint256",
          "name": "",
          "type": "uint256"
        }
      ],
      "name": "nftList",
      "outputs": [
        {
          "internalType": "string",
          "name": "",
          "type": "string"
        }
      ],
      "stateMutability": "view",
      "type": "function",
      "constant": true
    },
    {
      "inputs": [
        {
          "internalType": "uint256",
          "name": "",
          "type": "uint256"
        }
      ],
      "name": "nftWords",
      "outputs": [
        {
          "internalType": "string",
          "name": "",
          "type": "string"
        }
      ],
      "stateMutability": "view",
      "type": "function",
      "constant": true
    },
    {
      "inputs": [],
      "name": "owner",
      "outputs": [
        {
          "internalType": "address",
          "name": "",
          "type": "address"
        }
      ],
      "stateMutability": "view",
      "type": "function",
      "constant": true
    },
    {
      "inputs": [
        {
          "internalType": "uint256",
          "name": "tokenId",
          "type": "uint256"
        }
      ],
      "name": "ownerOf",
      "outputs": [
        {
          "internalType": "address",
          "name": "",
          "type": "address"
        }
      ],
      "stateMutability": "view",
      "type": "function",
      "constant": true
    },
    {
      "inputs": [],
      "name": "paused",
      "outputs": [
        {
          "internalType": "bool",
          "name": "",
          "type": "bool"
        }
      ],
      "stateMutability": "view",
      "type": "function",
      "constant": true
    },
    {
      "inputs": [],
      "name": "publicMintStatus",
      "outputs": [
        {
          "internalType": "bool",
          "name": "",
          "type": "bool"
        }
      ],
      "stateMutability": "view",
      "type": "function",
      "constant": true
    },
    {
      "inputs": [],
      "name": "renounceOwnership",
      "outputs": [],
      "stateMutability": "nonpayable",
      "type": "function"
    },
    {
      "inputs": [
        {
          "internalType": "address",
          "name": "from",
          "type": "address"
        },
        {
          "internalType": "address",
          "name": "to",
          "type": "address"
        },
        {
          "internalType": "uint256",
          "name": "tokenId",
          "type": "uint256"
        }
      ],
      "name": "safeTransferFrom",
      "outputs": [],
      "stateMutability": "nonpayable",
      "type": "function"
    },
    {
      "inputs": [
        {
          "internalType": "address",
          "name": "from",
          "type": "address"
        },
        {
          "internalType": "address",
          "name": "to",
          "type": "address"
        },
        {
          "internalType": "uint256",
          "name": "tokenId",
          "type": "uint256"
        },
        {
          "internalType": "bytes",
          "name": "_data",
          "type": "bytes"
        }
      ],
      "name": "safeTransferFrom",
      "outputs": [],
      "stateMutability": "nonpayable",
      "type": "function"
    },
    {
      "inputs": [
        {
          "internalType": "address",
          "name": "operator",
          "type": "address"
        },
        {
          "internalType": "bool",
          "name": "approved",
          "type": "bool"
        }
      ],
      "name": "setApprovalForAll",
      "outputs": [],
      "stateMutability": "nonpayable",
      "type": "function"
    },
    {
      "inputs": [],
      "name": "symbol",
      "outputs": [
        {
          "internalType": "string",
          "name": "",
          "type": "string"
        }
      ],
      "stateMutability": "view",
      "type": "function",
      "constant": true
    },
    {
      "inputs": [
        {
          "internalType": "uint256",
          "name": "index",
          "type": "uint256"
        }
      ],
      "name": "tokenByIndex",
      "outputs": [
        {
          "internalType": "uint256",
          "name": "",
          "type": "uint256"
        }
      ],
      "stateMutability": "view",
      "type": "function",
      "constant": true
    },
    {
      "inputs": [
        {
          "internalType": "address",
          "name": "owner",
          "type": "address"
        },
        {
          "internalType": "uint256",
          "name": "index",
          "type": "uint256"
        }
      ],
      "name": "tokenOfOwnerByIndex",
      "outputs": [
        {
          "internalType": "uint256",
          "name": "",
          "type": "uint256"
        }
      ],
      "stateMutability": "view",
      "type": "function",
      "constant": true
    },
    {
      "inputs": [],
      "name": "totalSupply",
      "outputs": [
        {
          "internalType": "uint256",
          "name": "",
          "type": "uint256"
        }
      ],
      "stateMutability": "view",
      "type": "function",
      "constant": true
    },
    {
      "inputs": [
        {
          "internalType": "address",
          "name": "from",
          "type": "address"
        },
        {
          "internalType": "address",
          "name": "to",
          "type": "address"
        },
        {
          "internalType": "uint256",
          "name": "tokenId",
          "type": "uint256"
        }
      ],
      "name": "transferFrom",
      "outputs": [],
      "stateMutability": "nonpayable",
      "type": "function"
    },
    {
      "inputs": [
        {
          "internalType": "address",
          "name": "newOwner",
          "type": "address"
        }
      ],
      "name": "transferOwnership",
      "outputs": [],
      "stateMutability": "nonpayable",
      "type": "function"
    },
    {
      "inputs": [],
      "name": "walletRestriction",
      "outputs": [
        {
          "internalType": "bool",
          "name": "",
          "type": "bool"
        }
      ],
      "stateMutability": "view",
      "type": "function",
      "constant": true
    },
    {
      "inputs": [],
      "name": "walletRestrictionCount",
      "outputs": [
        {
          "internalType": "uint256",
          "name": "",
          "type": "uint256"
        }
      ],
      "stateMutability": "view",
      "type": "function",
      "constant": true
    },
    {
      "inputs": [],
      "name": "pause",
      "outputs": [],
      "stateMutability": "nonpayable",
      "type": "function"
    },
    {
      "inputs": [],
      "name": "unpause",
      "outputs": [],
      "stateMutability": "nonpayable",
      "type": "function"
    },
    {
      "inputs": [
        {
          "internalType": "string",
          "name": "baseURI",
          "type": "string"
        }
      ],
      "name": "setBaseURI",
      "outputs": [],
      "stateMutability": "nonpayable",
      "type": "function"
    },
    {
      "inputs": [
        {
          "internalType": "bool",
          "name": "_status",
          "type": "bool"
        }
      ],
      "name": "setPublicMint",
      "outputs": [],
      "stateMutability": "nonpayable",
      "type": "function"
    },
    {
      "inputs": [
        {
          "internalType": "uint256",
          "name": "_count",
          "type": "uint256"
        },
        {
          "internalType": "bool",
          "name": "_status",
          "type": "bool"
        }
      ],
      "name": "setWalletRestriction",
      "outputs": [],
      "stateMutability": "nonpayable",
      "type": "function"
    },
    {
      "inputs": [
        {
          "internalType": "uint256",
          "name": "_maxSupply",
          "type": "uint256"
        }
      ],
      "name": "setMaxSupply",
      "outputs": [],
      "stateMutability": "nonpayable",
      "type": "function"
    },
    {
      "inputs": [
        {
          "internalType": "uint256",
          "name": "_amount",
          "type": "uint256"
        }
      ],
      "name": "setNFTAmount",
      "outputs": [],
      "stateMutability": "nonpayable",
      "type": "function"
    },
    {
      "inputs": [
        {
          "internalType": "address",
          "name": "_to",
          "type": "address"
        },
        {
          "internalType": "string",
          "name": "_tokenURI",
          "type": "string"
        },
        {
          "internalType": "string",
          "name": "_nftWord",
          "type": "string"
        }
      ],
      "name": "safeMint",
      "outputs": [],
      "stateMutability": "nonpayable",
      "type": "function"
    },
    {
      "inputs": [
        {
          "internalType": "address",
          "name": "_to",
          "type": "address"
        },
        {
          "internalType": "string",
          "name": "_tokenURI",
          "type": "string"
        },
        {
          "internalType": "string",
          "name": "_nftWord",
          "type": "string"
        }
      ],
      "name": "publicMinting",
      "outputs": [],
      "stateMutability": "payable",
      "type": "function",
      "payable": true
    },
    {
      "inputs": [
        {
          "internalType": "uint256",
          "name": "tokenId",
          "type": "uint256"
        }
      ],
      "name": "burnToken",
      "outputs": [],
      "stateMutability": "nonpayable",
      "type": "function"
    },
    {
      "inputs": [
        {
          "internalType": "uint256",
          "name": "tokenId",
          "type": "uint256"
        }
      ],
      "name": "tokenURI",
      "outputs": [
        {
          "internalType": "string",
          "name": "",
          "type": "string"
        }
      ],
      "stateMutability": "view",
      "type": "function",
      "constant": true
    },
    {
      "inputs": [
        {
          "internalType": "bytes4",
          "name": "interfaceId",
          "type": "bytes4"
        }
      ],
      "name": "supportsInterface",
      "outputs": [
        {
          "internalType": "bool",
          "name": "",
          "type": "bool"
        }
      ],
      "stateMutability": "view",
      "type": "function",
      "constant": true
    }
  ],
  "bytecode": "0x60806040526001600c556001601260006101000a81548160ff0219169083151502179055506001601260016101000a81548160ff021916908315150217905550600a60135560006014553480156200005657600080fd5b5060405162005c2338038062005c2383398181016040528101906200007c919062000508565b828281600090816200008f9190620007ed565b508060019081620000a19190620007ed565b5050506000600b60006101000a81548160ff021916908315150217905550620000df620000d3620000f960201b60201c565b6200010160201b60201c565b620000f081620001c760201b60201c565b505050620009ef565b600033905090565b6000600b60019054906101000a900473ffffffffffffffffffffffffffffffffffffffff16905081600b60016101000a81548173ffffffffffffffffffffffffffffffffffffffff021916908373ffffffffffffffffffffffffffffffffffffffff1602179055508173ffffffffffffffffffffffffffffffffffffffff168173ffffffffffffffffffffffffffffffffffffffff167f8be0079c531659141344cd1fd0a4f28419497f9722a3daafe3b4186f6b6457e060405160405180910390a35050565b620001d7620000f960201b60201c565b73ffffffffffffffffffffffffffffffffffffffff16620001fd620002dc60201b60201c565b73ffffffffffffffffffffffffffffffffffffffff161462000256576040517f08c379a00000000000000000000000000000000000000000000000000000000081526004016200024d9062000935565b60405180910390fd5b600073ffffffffffffffffffffffffffffffffffffffff168173ffffffffffffffffffffffffffffffffffffffff1603620002c8576040517f08c379a0000000000000000000000000000000000000000000000000000000008152600401620002bf90620009cd565b60405180910390fd5b620002d9816200010160201b60201c565b50565b6000600b60019054906101000a900473ffffffffffffffffffffffffffffffffffffffff16905090565b6000604051905090565b600080fd5b600080fd5b600080fd5b600080fd5b6000601f19601f8301169050919050565b7f4e487b7100000000000000000000000000000000000000000000000000000000600052604160045260246000fd5b6200036f8262000324565b810181811067ffffffffffffffff8211171562000391576200039062000335565b5b80604052505050565b6000620003a662000306565b9050620003b4828262000364565b919050565b600067ffffffffffffffff821115620003d757620003d662000335565b5b620003e28262000324565b9050602081019050919050565b60005b838110156200040f578082015181840152602081019050620003f2565b838111156200041f576000848401525b50505050565b60006200043c6200043684620003b9565b6200039a565b9050828152602081018484840111156200045b576200045a6200031f565b5b62000468848285620003ef565b509392505050565b600082601f8301126200048857620004876200031a565b5b81516200049a84826020860162000425565b91505092915050565b600073ffffffffffffffffffffffffffffffffffffffff82169050919050565b6000620004d082620004a3565b9050919050565b620004e281620004c3565b8114620004ee57600080fd5b50565b6000815190506200050281620004d7565b92915050565b60008060006060848603121562000524576200052362000310565b5b600084015167ffffffffffffffff81111562000545576200054462000315565b5b620005538682870162000470565b935050602084015167ffffffffffffffff81111562000577576200057662000315565b5b620005858682870162000470565b92505060406200059886828701620004f1565b9150509250925092565b600081519050919050565b7f4e487b7100000000000000000000000000000000000000000000000000000000600052602260045260246000fd5b60006002820490506001821680620005f557607f821691505b6020821081036200060b576200060a620005ad565b5b50919050565b60008190508160005260206000209050919050565b60006020601f8301049050919050565b600082821b905092915050565b600060088302620006757fffffffffffffffffffffffffffffffffffffffffffffffffffffffffffffffff8262000636565b62000681868362000636565b95508019841693508086168417925050509392505050565b6000819050919050565b6000819050919050565b6000620006ce620006c8620006c28462000699565b620006a3565b62000699565b9050919050565b6000819050919050565b620006ea83620006ad565b62000702620006f982620006d5565b84845462000643565b825550505050565b600090565b620007196200070a565b62000726818484620006df565b505050565b5b818110156200074e57620007426000826200070f565b6001810190506200072c565b5050565b601f8211156200079d57620007678162000611565b620007728462000626565b8101602085101562000782578190505b6200079a620007918562000626565b8301826200072b565b50505b505050565b600082821c905092915050565b6000620007c260001984600802620007a2565b1980831691505092915050565b6000620007dd8383620007af565b9150826002028217905092915050565b620007f882620005a2565b67ffffffffffffffff81111562000814576200081362000335565b5b620008208254620005dc565b6200082d82828562000752565b600060209050601f83116001811462000865576000841562000850578287015190505b6200085c8582620007cf565b865550620008cc565b601f198416620008758662000611565b60005b828110156200089f5784890151825560018201915060208501945060208101905062000878565b86831015620008bf5784890151620008bb601f891682620007af565b8355505b6001600288020188555050505b505050505050565b600082825260208201905092915050565b7f4f776e61626c653a2063616c6c6572206973206e6f7420746865206f776e6572600082015250565b60006200091d602083620008d4565b91506200092a82620008e5565b602082019050919050565b6000602082019050818103600083015262000950816200090e565b9050919050565b7f4f776e61626c653a206e6577206f776e657220697320746865207a65726f206160008201527f6464726573730000000000000000000000000000000000000000000000000000602082015250565b6000620009b5602683620008d4565b9150620009c28262000957565b604082019050919050565b60006020820190508181036000830152620009e881620009a6565b9050919050565b61522480620009ff6000396000f3fe6080604052600436106102255760003560e01c8063715018a611610123578063aecfd252116100ab578063d66a1bb81161006f578063d66a1bb8146107f6578063e985e9c51461081f578063eca81d421461085c578063f2fde38b14610885578063fbefd647146108ae57610225565b8063aecfd252146106fd578063b8142b5814610728578063b88d4fde14610765578063c87b56dd1461078e578063d547cfb7146107cb57610225565b80638456cb59116100f25780638456cb591461063e5780638da5cb5b1461065557806395d89b4114610680578063960de829146106ab578063a22cb465146106d457610225565b8063715018a6146105a557806375bea166146105bc5780637950a74f146105f95780637b47ec1a1461061557610225565b806332cb6b0c116101b157806355f804b31161017557806355f804b3146104ae5780635c975abb146104d75780636352211e146105025780636f8b44b01461053f57806370a082311461056857610225565b806332cb6b0c146103dd5780633f4ba83a1461040857806342842e0e1461041f57806342966c68146104485780634f6ccce71461047157610225565b80630e2d56cf116101f85780630e2d56cf146102f857806318160ddd1461032157806323b872dd1461034c57806326202370146103755780632f745c59146103a057610225565b806301ffc9a71461022a57806306fdde0314610267578063081812fc14610292578063095ea7b3146102cf575b600080fd5b34801561023657600080fd5b50610251600480360381019061024c91906136a3565b6108d9565b60405161025e91906136eb565b60405180910390f35b34801561027357600080fd5b5061027c6108eb565b604051610289919061379f565b60405180910390f35b34801561029e57600080fd5b506102b960048036038101906102b491906137f7565b61097d565b6040516102c69190613865565b60405180910390f35b3480156102db57600080fd5b506102f660048036038101906102f191906138ac565b610a02565b005b34801561030457600080fd5b5061031f600480360381019061031a9190613918565b610b19565b005b34801561032d57600080fd5b50610336610bb2565b6040516103439190613954565b60405180910390f35b34801561035857600080fd5b50610373600480360381019061036e919061396f565b610bbf565b005b34801561038157600080fd5b5061038a610c1f565b60405161039791906136eb565b60405180910390f35b3480156103ac57600080fd5b506103c760048036038101906103c291906138ac565b610c32565b6040516103d49190613954565b60405180910390f35b3480156103e957600080fd5b506103f2610cd7565b6040516103ff9190613954565b60405180910390f35b34801561041457600080fd5b5061041d610cdd565b005b34801561042b57600080fd5b506104466004803603810190610441919061396f565b610d63565b005b34801561045457600080fd5b5061046f600480360381019061046a91906137f7565b610d83565b005b34801561047d57600080fd5b50610498600480360381019061049391906137f7565b610ddf565b6040516104a59190613954565b60405180910390f35b3480156104ba57600080fd5b506104d560048036038101906104d09190613af7565b610e50565b005b3480156104e357600080fd5b506104ec610edf565b6040516104f991906136eb565b60405180910390f35b34801561050e57600080fd5b50610529600480360381019061052491906137f7565b610ef6565b6040516105369190613865565b60405180910390f35b34801561054b57600080fd5b50610566600480360381019061056191906137f7565b610fa7565b005b34801561057457600080fd5b5061058f600480360381019061058a9190613b40565b61102d565b60405161059c9190613954565b60405180910390f35b3480156105b157600080fd5b506105ba6110e4565b005b3480156105c857600080fd5b506105e360048036038101906105de91906137f7565b61116c565b6040516105f0919061379f565b60405180910390f35b610613600480360381019061060e9190613b6d565b611218565b005b34801561062157600080fd5b5061063c600480360381019061063791906137f7565b6113c2565b005b34801561064a57600080fd5b5061065361144a565b005b34801561066157600080fd5b5061066a6114d0565b6040516106779190613865565b60405180910390f35b34801561068c57600080fd5b506106956114fa565b6040516106a2919061379f565b60405180910390f35b3480156106b757600080fd5b506106d260048036038101906106cd91906137f7565b61158c565b005b3480156106e057600080fd5b506106fb60048036038101906106f69190613bf8565b611612565b005b34801561070957600080fd5b50610712611628565b60405161071f9190613954565b60405180910390f35b34801561073457600080fd5b5061074f600480360381019061074a91906137f7565b61162e565b60405161075c919061379f565b60405180910390f35b34801561077157600080fd5b5061078c60048036038101906107879190613cd9565b6116da565b005b34801561079a57600080fd5b506107b560048036038101906107b091906137f7565b61173c565b6040516107c2919061379f565b60405180910390f35b3480156107d757600080fd5b506107e061174e565b6040516107ed919061379f565b60405180910390f35b34801561080257600080fd5b5061081d60048036038101906108189190613d5c565b6117dc565b005b34801561082b57600080fd5b5061084660048036038101906108419190613d9c565b61187d565b60405161085391906136eb565b60405180910390f35b34801561086857600080fd5b50610883600480360381019061087e9190613b6d565b611911565b005b34801561089157600080fd5b506108ac60048036038101906108a79190613b40565b611afd565b005b3480156108ba57600080fd5b506108c3611bf4565b6040516108d091906136eb565b60405180910390f35b60006108e482611c07565b9050919050565b6060600080546108fa90613e0b565b80601f016020809104026020016040519081016040528092919081815260200182805461092690613e0b565b80156109735780601f1061094857610100808354040283529160200191610973565b820191906000526020600020905b81548152906001019060200180831161095657829003601f168201915b5050505050905090565b600061098882611c81565b6109c7576040517f08c379a00000000000000000000000000000000000000000000000000000000081526004016109be90613eae565b60405180910390fd5b6004600083815260200190815260200160002060009054906101000a900473ffffffffffffffffffffffffffffffffffffffff169050919050565b6000610a0d82610ef6565b90508073ffffffffffffffffffffffffffffffffffffffff168373ffffffffffffffffffffffffffffffffffffffff1603610a7d576040517f08c379a0000000000000000000000000000000000000000000000000000000008152600401610a7490613f40565b60405180910390fd5b8073ffffffffffffffffffffffffffffffffffffffff16610a9c611ced565b73ffffffffffffffffffffffffffffffffffffffff161480610acb5750610aca81610ac5611ced565b61187d565b5b610b0a576040517f08c379a0000000000000000000000000000000000000000000000000000000008152600401610b0190613fd2565b60405180910390fd5b610b148383611cf5565b505050565b610b21611ced565b73ffffffffffffffffffffffffffffffffffffffff16610b3f6114d0565b73ffffffffffffffffffffffffffffffffffffffff1614610b95576040517f08c379a0000000000000000000000000000000000000000000000000000000008152600401610b8c9061403e565b60405180910390fd5b80601260006101000a81548160ff02191690831515021790555050565b6000600880549050905090565b610bd0610bca611ced565b82611dae565b610c0f576040517f08c379a0000000000000000000000000000000000000000000000000000000008152600401610c06906140d0565b60405180910390fd5b610c1a838383611e8c565b505050565b601260009054906101000a900460ff1681565b6000610c3d8361102d565b8210610c7e576040517f08c379a0000000000000000000000000000000000000000000000000000000008152600401610c7590614162565b60405180910390fd5b600660008473ffffffffffffffffffffffffffffffffffffffff1673ffffffffffffffffffffffffffffffffffffffff168152602001908152602001600020600083815260200190815260200160002054905092915050565b60105481565b610ce5611ced565b73ffffffffffffffffffffffffffffffffffffffff16610d036114d0565b73ffffffffffffffffffffffffffffffffffffffff1614610d59576040517f08c379a0000000000000000000000000000000000000000000000000000000008152600401610d509061403e565b60405180910390fd5b610d616120f2565b565b610d7e838383604051806020016040528060008152506116da565b505050565b610d94610d8e611ced565b82611dae565b610dd3576040517f08c379a0000000000000000000000000000000000000000000000000000000008152600401610dca906141f4565b60405180910390fd5b610ddc81612194565b50565b6000610de9610bb2565b8210610e2a576040517f08c379a0000000000000000000000000000000000000000000000000000000008152600401610e2190614286565b60405180910390fd5b60088281548110610e3e57610e3d6142a6565b5b90600052602060002001549050919050565b610e58611ced565b73ffffffffffffffffffffffffffffffffffffffff16610e766114d0565b73ffffffffffffffffffffffffffffffffffffffff1614610ecc576040517f08c379a0000000000000000000000000000000000000000000000000000000008152600401610ec39061403e565b60405180910390fd5b8060119081610edb9190614481565b5050565b6000600b60009054906101000a900460ff16905090565b6000806002600084815260200190815260200160002060009054906101000a900473ffffffffffffffffffffffffffffffffffffffff169050600073ffffffffffffffffffffffffffffffffffffffff168173ffffffffffffffffffffffffffffffffffffffff1603610f9e576040517f08c379a0000000000000000000000000000000000000000000000000000000008152600401610f95906145c5565b60405180910390fd5b80915050919050565b610faf611ced565b73ffffffffffffffffffffffffffffffffffffffff16610fcd6114d0565b73ffffffffffffffffffffffffffffffffffffffff1614611023576040517f08c379a000000000000000000000000000000000000000000000000000000000815260040161101a9061403e565b60405180910390fd5b8060108190555050565b60008073ffffffffffffffffffffffffffffffffffffffff168273ffffffffffffffffffffffffffffffffffffffff160361109d576040517f08c379a000000000000000000000000000000000000000000000000000000000815260040161109490614657565b60405180910390fd5b600360008373ffffffffffffffffffffffffffffffffffffffff1673ffffffffffffffffffffffffffffffffffffffff168152602001908152602001600020549050919050565b6110ec611ced565b73ffffffffffffffffffffffffffffffffffffffff1661110a6114d0565b73ffffffffffffffffffffffffffffffffffffffff1614611160576040517f08c379a00000000000000000000000000000000000000000000000000000000081526004016111579061403e565b60405180910390fd5b61116a600061221c565b565b600d818154811061117c57600080fd5b90600052602060002001600091509050805461119790613e0b565b80601f01602080910402602001604051908101604052809291908181526020018280546111c390613e0b565b80156112105780601f106111e557610100808354040283529160200191611210565b820191906000526020600020905b8154815290600101906020018083116111f357829003601f168201915b505050505081565b601260009054906101000a900460ff16611267576040517f08c379a000000000000000000000000000000000000000000000000000000000815260040161125e906146c3565b60405180910390fd5b6013546112738461102d565b106112b3576040517f08c379a00000000000000000000000000000000000000000000000000000000081526004016112aa9061472f565b60405180910390fd5b600e826040516112c3919061478b565b908152602001604051809103902060009054906101000a900460ff161561131f576040517f08c379a0000000000000000000000000000000000000000000000000000000008152600401611316906147ee565b60405180910390fd5b346014541115611364576040517f08c379a000000000000000000000000000000000000000000000000000000000815260040161135b9061485a565b60405180910390fd5b61136c6114d0565b73ffffffffffffffffffffffffffffffffffffffff166108fc349081150290604051600060405180830381858888f193505050501580156113b1573d6000803e3d6000fd5b506113bd8383836122e2565b505050565b6113ca611ced565b73ffffffffffffffffffffffffffffffffffffffff166113e86114d0565b73ffffffffffffffffffffffffffffffffffffffff161461143e576040517f08c379a00000000000000000000000000000000000000000000000000000000081526004016114359061403e565b60405180910390fd5b61144781612194565b50565b611452611ced565b73ffffffffffffffffffffffffffffffffffffffff166114706114d0565b73ffffffffffffffffffffffffffffffffffffffff16146114c6576040517f08c379a00000000000000000000000000000000000000000000000000000000081526004016114bd9061403e565b60405180910390fd5b6114ce6123e6565b565b6000600b60019054906101000a900473ffffffffffffffffffffffffffffffffffffffff16905090565b60606001805461150990613e0b565b80601f016020809104026020016040519081016040528092919081815260200182805461153590613e0b565b80156115825780601f1061155757610100808354040283529160200191611582565b820191906000526020600020905b81548152906001019060200180831161156557829003601f168201915b5050505050905090565b611594611ced565b73ffffffffffffffffffffffffffffffffffffffff166115b26114d0565b73ffffffffffffffffffffffffffffffffffffffff1614611608576040517f08c379a00000000000000000000000000000000000000000000000000000000081526004016115ff9061403e565b60405180910390fd5b8060148190555050565b61162461161d611ced565b8383612489565b5050565b60135481565b600f818154811061163e57600080fd5b90600052602060002001600091509050805461165990613e0b565b80601f016020809104026020016040519081016040528092919081815260200182805461168590613e0b565b80156116d25780601f106116a7576101008083540402835291602001916116d2565b820191906000526020600020905b8154815290600101906020018083116116b557829003601f168201915b505050505081565b6116eb6116e5611ced565b83611dae565b61172a576040517f08c379a0000000000000000000000000000000000000000000000000000000008152600401611721906140d0565b60405180910390fd5b611736848484846125f5565b50505050565b606061174782612651565b9050919050565b6011805461175b90613e0b565b80601f016020809104026020016040519081016040528092919081815260200182805461178790613e0b565b80156117d45780601f106117a9576101008083540402835291602001916117d4565b820191906000526020600020905b8154815290600101906020018083116117b757829003601f168201915b505050505081565b6117e4611ced565b73ffffffffffffffffffffffffffffffffffffffff166118026114d0565b73ffffffffffffffffffffffffffffffffffffffff1614611858576040517f08c379a000000000000000000000000000000000000000000000000000000000815260040161184f9061403e565b60405180910390fd5b80601260016101000a81548160ff021916908315150217905550816013819055505050565b6000600560008473ffffffffffffffffffffffffffffffffffffffff1673ffffffffffffffffffffffffffffffffffffffff16815260200190815260200160002060008373ffffffffffffffffffffffffffffffffffffffff1673ffffffffffffffffffffffffffffffffffffffff16815260200190815260200160002060009054906101000a900460ff16905092915050565b611919611ced565b73ffffffffffffffffffffffffffffffffffffffff166119376114d0565b73ffffffffffffffffffffffffffffffffffffffff161461198d576040517f08c379a00000000000000000000000000000000000000000000000000000000081526004016119849061403e565b60405180910390fd5b600e8260405161199d919061478b565b908152602001604051809103902060009054906101000a900460ff16156119f9576040517f08c379a00000000000000000000000000000000000000000000000000000000081526004016119f0906147ee565b60405180910390fd5b600d82908060018154018082558091505060019003906000526020600020016000909190919091509081611a2d9190614481565b506000600c549050611a3f84826127a2565b6001600c54611a4e91906148a9565b600c819055506001600e84604051611a66919061478b565b908152602001604051809103902060006101000a81548160ff021916908315150217905550611a9581846127c0565b600f82908060018154018082558091505060019003906000526020600020016000909190919091509081611ac99190614481565b50807fffb7d48921efa780a6b367c35b314f820a98f1f8a0eaca7f5e2c55f6a79643b860405160405180910390a250505050565b611b05611ced565b73ffffffffffffffffffffffffffffffffffffffff16611b236114d0565b73ffffffffffffffffffffffffffffffffffffffff1614611b79576040517f08c379a0000000000000000000000000000000000000000000000000000000008152600401611b709061403e565b60405180910390fd5b600073ffffffffffffffffffffffffffffffffffffffff168173ffffffffffffffffffffffffffffffffffffffff1603611be8576040517f08c379a0000000000000000000000000000000000000000000000000000000008152600401611bdf90614971565b60405180910390fd5b611bf18161221c565b50565b601260019054906101000a900460ff1681565b60007f780e9d63000000000000000000000000000000000000000000000000000000007bffffffffffffffffffffffffffffffffffffffffffffffffffffffff1916827bffffffffffffffffffffffffffffffffffffffffffffffffffffffff19161480611c7a5750611c798261282d565b5b9050919050565b60008073ffffffffffffffffffffffffffffffffffffffff166002600084815260200190815260200160002060009054906101000a900473ffffffffffffffffffffffffffffffffffffffff1673ffffffffffffffffffffffffffffffffffffffff1614159050919050565b600033905090565b816004600083815260200190815260200160002060006101000a81548173ffffffffffffffffffffffffffffffffffffffff021916908373ffffffffffffffffffffffffffffffffffffffff160217905550808273ffffffffffffffffffffffffffffffffffffffff16611d6883610ef6565b73ffffffffffffffffffffffffffffffffffffffff167f8c5be1e5ebec7d5bd14f71427d1e84f3dd0314c0f7b2291e5b200ac8c7c3b92560405160405180910390a45050565b6000611db982611c81565b611df8576040517f08c379a0000000000000000000000000000000000000000000000000000000008152600401611def90614a03565b60405180910390fd5b6000611e0383610ef6565b90508073ffffffffffffffffffffffffffffffffffffffff168473ffffffffffffffffffffffffffffffffffffffff161480611e455750611e44818561187d565b5b80611e8357508373ffffffffffffffffffffffffffffffffffffffff16611e6b8461097d565b73ffffffffffffffffffffffffffffffffffffffff16145b91505092915050565b8273ffffffffffffffffffffffffffffffffffffffff16611eac82610ef6565b73ffffffffffffffffffffffffffffffffffffffff1614611f02576040517f08c379a0000000000000000000000000000000000000000000000000000000008152600401611ef990614a95565b60405180910390fd5b600073ffffffffffffffffffffffffffffffffffffffff168273ffffffffffffffffffffffffffffffffffffffff1603611f71576040517f08c379a0000000000000000000000000000000000000000000000000000000008152600401611f6890614b27565b60405180910390fd5b611f7c83838361290f565b611f87600082611cf5565b6001600360008573ffffffffffffffffffffffffffffffffffffffff1673ffffffffffffffffffffffffffffffffffffffff1681526020019081526020016000206000828254611fd79190614b47565b925050819055506001600360008473ffffffffffffffffffffffffffffffffffffffff1673ffffffffffffffffffffffffffffffffffffffff168152602001908152602001600020600082825461202e91906148a9565b92505081905550816002600083815260200190815260200160002060006101000a81548173ffffffffffffffffffffffffffffffffffffffff021916908373ffffffffffffffffffffffffffffffffffffffff160217905550808273ffffffffffffffffffffffffffffffffffffffff168473ffffffffffffffffffffffffffffffffffffffff167fddf252ad1be2c89b69c2b068fc378daa952ba7f163c4a11628f55a4df523b3ef60405160405180910390a46120ed838383612967565b505050565b6120fa610edf565b612139576040517f08c379a000000000000000000000000000000000000000000000000000000000815260040161213090614bc7565b60405180910390fd5b6000600b60006101000a81548160ff0219169083151502179055507f5db9ee0a495bf2e6ff9c91a7834c1ba4fdd244a5e8aa4e537bd38aeae4b073aa61217d611ced565b60405161218a9190613865565b60405180910390a1565b61219c611ced565b73ffffffffffffffffffffffffffffffffffffffff166121ba6114d0565b73ffffffffffffffffffffffffffffffffffffffff1614612210576040517f08c379a00000000000000000000000000000000000000000000000000000000081526004016122079061403e565b60405180910390fd5b6122198161296c565b50565b6000600b60019054906101000a900473ffffffffffffffffffffffffffffffffffffffff16905081600b60016101000a81548173ffffffffffffffffffffffffffffffffffffffff021916908373ffffffffffffffffffffffffffffffffffffffff1602179055508173ffffffffffffffffffffffffffffffffffffffff168173ffffffffffffffffffffffffffffffffffffffff167f8be0079c531659141344cd1fd0a4f28419497f9722a3daafe3b4186f6b6457e060405160405180910390a35050565b600d829080600181540180825580915050600190039060005260206000200160009091909190915090816123169190614481565b506000600c54905061232884826127a2565b6001600c5461233791906148a9565b600c819055506001600e8460405161234f919061478b565b908152602001604051809103902060006101000a81548160ff02191690831515021790555061237e81846127c0565b600f829080600181540180825580915050600190039060005260206000200160009091909190915090816123b29190614481565b50807fffb7d48921efa780a6b367c35b314f820a98f1f8a0eaca7f5e2c55f6a79643b860405160405180910390a250505050565b6123ee610edf565b1561242e576040517f08c379a000000000000000000000000000000000000000000000000000000000815260040161242590614c33565b60405180910390fd5b6001600b60006101000a81548160ff0219169083151502179055507f62e78cea01bee320cd4e420270b5ea74000d11b0c9f74754ebdbfc544b05a258612472611ced565b60405161247f9190613865565b60405180910390a1565b8173ffffffffffffffffffffffffffffffffffffffff168373ffffffffffffffffffffffffffffffffffffffff16036124f7576040517f08c379a00000000000000000000000000000000000000000000000000000000081526004016124ee90614c9f565b60405180910390fd5b80600560008573ffffffffffffffffffffffffffffffffffffffff1673ffffffffffffffffffffffffffffffffffffffff16815260200190815260200160002060008473ffffffffffffffffffffffffffffffffffffffff1673ffffffffffffffffffffffffffffffffffffffff16815260200190815260200160002060006101000a81548160ff0219169083151502179055508173ffffffffffffffffffffffffffffffffffffffff168373ffffffffffffffffffffffffffffffffffffffff167f17307eab39ab6107e8899845ad3d59bd9653f200f220920489ca2b5937696c31836040516125e891906136eb565b60405180910390a3505050565b612600848484611e8c565b61260c848484846129bf565b61264b576040517f08c379a000000000000000000000000000000000000000000000000000000000815260040161264290614d31565b60405180910390fd5b50505050565b606061265c82611c81565b61269b576040517f08c379a000000000000000000000000000000000000000000000000000000000815260040161269290614dc3565b60405180910390fd5b6000600a600084815260200190815260200160002080546126bb90613e0b565b80601f01602080910402602001604051908101604052809291908181526020018280546126e790613e0b565b80156127345780601f1061270957610100808354040283529160200191612734565b820191906000526020600020905b81548152906001019060200180831161271757829003601f168201915b505050505090506000612745612b46565b9050600081510361275a57819250505061279d565b60008251111561278f578082604051602001612777929190614de3565b6040516020818303038152906040529250505061279d565b61279884612bd8565b925050505b919050565b6127bc828260405180602001604052806000815250612c7f565b5050565b6127c982611c81565b612808576040517f08c379a00000000000000000000000000000000000000000000000000000000081526004016127ff90614e79565b60405180910390fd5b80600a600084815260200190815260200160002090816128289190614481565b505050565b60007f80ac58cd000000000000000000000000000000000000000000000000000000007bffffffffffffffffffffffffffffffffffffffffffffffffffffffff1916827bffffffffffffffffffffffffffffffffffffffffffffffffffffffff191614806128f857507f5b5e139f000000000000000000000000000000000000000000000000000000007bffffffffffffffffffffffffffffffffffffffffffffffffffffffff1916827bffffffffffffffffffffffffffffffffffffffffffffffffffffffff1916145b80612908575061290782612cda565b5b9050919050565b612917610edf565b15612957576040517f08c379a000000000000000000000000000000000000000000000000000000000815260040161294e90614c33565b60405180910390fd5b612962838383612d44565b505050565b505050565b61297581612e56565b6000600a6000838152602001908152602001600020805461299590613e0b565b9050146129bc57600a600082815260200190815260200160002060006129bb91906135da565b5b50565b60006129e08473ffffffffffffffffffffffffffffffffffffffff16612f73565b15612b39578373ffffffffffffffffffffffffffffffffffffffff1663150b7a02612a09611ced565b8786866040518563ffffffff1660e01b8152600401612a2b9493929190614eee565b6020604051808303816000875af1925050508015612a6757506040513d601f19601f82011682018060405250810190612a649190614f4f565b60015b612ae9573d8060008114612a97576040519150601f19603f3d011682016040523d82523d6000602084013e612a9c565b606091505b506000815103612ae1576040517f08c379a0000000000000000000000000000000000000000000000000000000008152600401612ad890614d31565b60405180910390fd5b805181602001fd5b63150b7a0260e01b7bffffffffffffffffffffffffffffffffffffffffffffffffffffffff1916817bffffffffffffffffffffffffffffffffffffffffffffffffffffffff191614915050612b3e565b600190505b949350505050565b606060118054612b5590613e0b565b80601f0160208091040260200160405190810160405280929190818152602001828054612b8190613e0b565b8015612bce5780601f10612ba357610100808354040283529160200191612bce565b820191906000526020600020905b815481529060010190602001808311612bb157829003601f168201915b5050505050905090565b6060612be382611c81565b612c22576040517f08c379a0000000000000000000000000000000000000000000000000000000008152600401612c1990614fee565b60405180910390fd5b6000612c2c612b46565b90506000815111612c4c5760405180602001604052806000815250612c77565b80612c5684612f96565b604051602001612c67929190614de3565b6040516020818303038152906040525b915050919050565b612c8983836130f6565b612c9660008484846129bf565b612cd5576040517f08c379a0000000000000000000000000000000000000000000000000000000008152600401612ccc90614d31565b60405180910390fd5b505050565b60007f01ffc9a7000000000000000000000000000000000000000000000000000000007bffffffffffffffffffffffffffffffffffffffffffffffffffffffff1916827bffffffffffffffffffffffffffffffffffffffffffffffffffffffff1916149050919050565b612d4f8383836132cf565b600073ffffffffffffffffffffffffffffffffffffffff168373ffffffffffffffffffffffffffffffffffffffff1603612d9157612d8c816132d4565b612dd0565b8173ffffffffffffffffffffffffffffffffffffffff168373ffffffffffffffffffffffffffffffffffffffff1614612dcf57612dce838261331d565b5b5b600073ffffffffffffffffffffffffffffffffffffffff168273ffffffffffffffffffffffffffffffffffffffff1603612e1257612e0d8161348a565b612e51565b8273ffffffffffffffffffffffffffffffffffffffff168273ffffffffffffffffffffffffffffffffffffffff1614612e5057612e4f828261355b565b5b5b505050565b6000612e6182610ef6565b9050612e6f8160008461290f565b612e7a600083611cf5565b6001600360008373ffffffffffffffffffffffffffffffffffffffff1673ffffffffffffffffffffffffffffffffffffffff1681526020019081526020016000206000828254612eca9190614b47565b925050819055506002600083815260200190815260200160002060006101000a81549073ffffffffffffffffffffffffffffffffffffffff021916905581600073ffffffffffffffffffffffffffffffffffffffff168273ffffffffffffffffffffffffffffffffffffffff167fddf252ad1be2c89b69c2b068fc378daa952ba7f163c4a11628f55a4df523b3ef60405160405180910390a4612f6f81600084612967565b5050565b6000808273ffffffffffffffffffffffffffffffffffffffff163b119050919050565b606060008203612fdd576040518060400160405280600181526020017f300000000000000000000000000000000000000000000000000000000000000081525090506130f1565b600082905060005b6000821461300f578080612ff89061500e565b915050600a826130089190615085565b9150612fe5565b60008167ffffffffffffffff81111561302b5761302a6139cc565b5b6040519080825280601f01601f19166020018201604052801561305d5781602001600182028036833780820191505090505b5090505b600085146130ea576001826130769190614b47565b9150600a8561308591906150b6565b603061309191906148a9565b60f81b8183815181106130a7576130a66142a6565b5b60200101907effffffffffffffffffffffffffffffffffffffffffffffffffffffffffffff1916908160001a905350600a856130e39190615085565b9450613061565b8093505050505b919050565b600073ffffffffffffffffffffffffffffffffffffffff168273ffffffffffffffffffffffffffffffffffffffff1603613165576040517f08c379a000000000000000000000000000000000000000000000000000000000815260040161315c90615133565b60405180910390fd5b61316e81611c81565b156131ae576040517f08c379a00000000000000000000000000000000000000000000000000000000081526004016131a59061519f565b60405180910390fd5b6131ba6000838361290f565b6001600360008473ffffffffffffffffffffffffffffffffffffffff1673ffffffffffffffffffffffffffffffffffffffff168152602001908152602001600020600082825461320a91906148a9565b92505081905550816002600083815260200190815260200160002060006101000a81548173ffffffffffffffffffffffffffffffffffffffff021916908373ffffffffffffffffffffffffffffffffffffffff160217905550808273ffffffffffffffffffffffffffffffffffffffff16600073ffffffffffffffffffffffffffffffffffffffff167fddf252ad1be2c89b69c2b068fc378daa952ba7f163c4a11628f55a4df523b3ef60405160405180910390a46132cb60008383612967565b5050565b505050565b6008805490506009600083815260200190815260200160002081905550600881908060018154018082558091505060019003906000526020600020016000909190919091505550565b6000600161332a8461102d565b6133349190614b47565b9050600060076000848152602001908152602001600020549050818114613419576000600660008673ffffffffffffffffffffffffffffffffffffffff1673ffffffffffffffffffffffffffffffffffffffff168152602001908152602001600020600084815260200190815260200160002054905080600660008773ffffffffffffffffffffffffffffffffffffffff1673ffffffffffffffffffffffffffffffffffffffff168152602001908152602001600020600084815260200190815260200160002081905550816007600083815260200190815260200160002081905550505b6007600084815260200190815260200160002060009055600660008573ffffffffffffffffffffffffffffffffffffffff1673ffffffffffffffffffffffffffffffffffffffff16815260200190815260200160002060008381526020019081526020016000206000905550505050565b6000600160088054905061349e9190614b47565b90506000600960008481526020019081526020016000205490506000600883815481106134ce576134cd6142a6565b5b9060005260206000200154905080600883815481106134f0576134ef6142a6565b5b90600052602060002001819055508160096000838152602001908152602001600020819055506009600085815260200190815260200160002060009055600880548061353f5761353e6151bf565b5b6001900381819060005260206000200160009055905550505050565b60006135668361102d565b905081600660008573ffffffffffffffffffffffffffffffffffffffff1673ffffffffffffffffffffffffffffffffffffffff168152602001908152602001600020600083815260200190815260200160002081905550806007600084815260200190815260200160002081905550505050565b5080546135e690613e0b565b6000825580601f106135f85750613617565b601f016020900490600052602060002090810190613616919061361a565b5b50565b5b8082111561363357600081600090555060010161361b565b5090565b6000604051905090565b600080fd5b600080fd5b60007fffffffff0000000000000000000000000000000000000000000000000000000082169050919050565b6136808161364b565b811461368b57600080fd5b50565b60008135905061369d81613677565b92915050565b6000602082840312156136b9576136b8613641565b5b60006136c78482850161368e565b91505092915050565b60008115159050919050565b6136e5816136d0565b82525050565b600060208201905061370060008301846136dc565b92915050565b600081519050919050565b600082825260208201905092915050565b60005b83811015613740578082015181840152602081019050613725565b8381111561374f576000848401525b50505050565b6000601f19601f8301169050919050565b600061377182613706565b61377b8185613711565b935061378b818560208601613722565b61379481613755565b840191505092915050565b600060208201905081810360008301526137b98184613766565b905092915050565b6000819050919050565b6137d4816137c1565b81146137df57600080fd5b50565b6000813590506137f1816137cb565b92915050565b60006020828403121561380d5761380c613641565b5b600061381b848285016137e2565b91505092915050565b600073ffffffffffffffffffffffffffffffffffffffff82169050919050565b600061384f82613824565b9050919050565b61385f81613844565b82525050565b600060208201905061387a6000830184613856565b92915050565b61388981613844565b811461389457600080fd5b50565b6000813590506138a681613880565b92915050565b600080604083850312156138c3576138c2613641565b5b60006138d185828601613897565b92505060206138e2858286016137e2565b9150509250929050565b6138f5816136d0565b811461390057600080fd5b50565b600081359050613912816138ec565b92915050565b60006020828403121561392e5761392d613641565b5b600061393c84828501613903565b91505092915050565b61394e816137c1565b82525050565b60006020820190506139696000830184613945565b92915050565b60008060006060848603121561398857613987613641565b5b600061399686828701613897565b93505060206139a786828701613897565b92505060406139b8868287016137e2565b9150509250925092565b600080fd5b600080fd5b7f4e487b7100000000000000000000000000000000000000000000000000000000600052604160045260246000fd5b613a0482613755565b810181811067ffffffffffffffff82111715613a2357613a226139cc565b5b80604052505050565b6000613a36613637565b9050613a4282826139fb565b919050565b600067ffffffffffffffff821115613a6257613a616139cc565b5b613a6b82613755565b9050602081019050919050565b82818337600083830152505050565b6000613a9a613a9584613a47565b613a2c565b905082815260208101848484011115613ab657613ab56139c7565b5b613ac1848285613a78565b509392505050565b600082601f830112613ade57613add6139c2565b5b8135613aee848260208601613a87565b91505092915050565b600060208284031215613b0d57613b0c613641565b5b600082013567ffffffffffffffff811115613b2b57613b2a613646565b5b613b3784828501613ac9565b91505092915050565b600060208284031215613b5657613b55613641565b5b6000613b6484828501613897565b91505092915050565b600080600060608486031215613b8657613b85613641565b5b6000613b9486828701613897565b935050602084013567ffffffffffffffff811115613bb557613bb4613646565b5b613bc186828701613ac9565b925050604084013567ffffffffffffffff811115613be257613be1613646565b5b613bee86828701613ac9565b9150509250925092565b60008060408385031215613c0f57613c0e613641565b5b6000613c1d85828601613897565b9250506020613c2e85828601613903565b9150509250929050565b600067ffffffffffffffff821115613c5357613c526139cc565b5b613c5c82613755565b9050602081019050919050565b6000613c7c613c7784613c38565b613a2c565b905082815260208101848484011115613c9857613c976139c7565b5b613ca3848285613a78565b509392505050565b600082601f830112613cc057613cbf6139c2565b5b8135613cd0848260208601613c69565b91505092915050565b60008060008060808587031215613cf357613cf2613641565b5b6000613d0187828801613897565b9450506020613d1287828801613897565b9350506040613d23878288016137e2565b925050606085013567ffffffffffffffff811115613d4457613d43613646565b5b613d5087828801613cab565b91505092959194509250565b60008060408385031215613d7357613d72613641565b5b6000613d81858286016137e2565b9250506020613d9285828601613903565b9150509250929050565b60008060408385031215613db357613db2613641565b5b6000613dc185828601613897565b9250506020613dd285828601613897565b9150509250929050565b7f4e487b7100000000000000000000000000000000000000000000000000000000600052602260045260246000fd5b60006002820490506001821680613e2357607f821691505b602082108103613e3657613e35613ddc565b5b50919050565b7f4552433732313a20617070726f76656420717565727920666f72206e6f6e657860008201527f697374656e7420746f6b656e0000000000000000000000000000000000000000602082015250565b6000613e98602c83613711565b9150613ea382613e3c565b604082019050919050565b60006020820190508181036000830152613ec781613e8b565b9050919050565b7f4552433732313a20617070726f76616c20746f2063757272656e74206f776e6560008201527f7200000000000000000000000000000000000000000000000000000000000000602082015250565b6000613f2a602183613711565b9150613f3582613ece565b604082019050919050565b60006020820190508181036000830152613f5981613f1d565b9050919050565b7f4552433732313a20617070726f76652063616c6c6572206973206e6f74206f7760008201527f6e6572206e6f7220617070726f76656420666f7220616c6c0000000000000000602082015250565b6000613fbc603883613711565b9150613fc782613f60565b604082019050919050565b60006020820190508181036000830152613feb81613faf565b9050919050565b7f4f776e61626c653a2063616c6c6572206973206e6f7420746865206f776e6572600082015250565b6000614028602083613711565b915061403382613ff2565b602082019050919050565b600060208201905081810360008301526140578161401b565b9050919050565b7f4552433732313a207472616e736665722063616c6c6572206973206e6f74206f60008201527f776e6572206e6f7220617070726f766564000000000000000000000000000000602082015250565b60006140ba603183613711565b91506140c58261405e565b604082019050919050565b600060208201905081810360008301526140e9816140ad565b9050919050565b7f455243373231456e756d657261626c653a206f776e657220696e646578206f7560008201527f74206f6620626f756e6473000000000000000000000000000000000000000000602082015250565b600061414c602b83613711565b9150614157826140f0565b604082019050919050565b6000602082019050818103600083015261417b8161413f565b9050919050565b7f4552433732314275726e61626c653a2063616c6c6572206973206e6f74206f7760008201527f6e6572206e6f7220617070726f76656400000000000000000000000000000000602082015250565b60006141de603083613711565b91506141e982614182565b604082019050919050565b6000602082019050818103600083015261420d816141d1565b9050919050565b7f455243373231456e756d657261626c653a20676c6f62616c20696e646578206f60008201527f7574206f6620626f756e64730000000000000000000000000000000000000000602082015250565b6000614270602c83613711565b915061427b82614214565b604082019050919050565b6000602082019050818103600083015261429f81614263565b9050919050565b7f4e487b7100000000000000000000000000000000000000000000000000000000600052603260045260246000fd5b60008190508160005260206000209050919050565b60006020601f8301049050919050565b600082821b905092915050565b6000600883026143377fffffffffffffffffffffffffffffffffffffffffffffffffffffffffffffffff826142fa565b61434186836142fa565b95508019841693508086168417925050509392505050565b6000819050919050565b600061437e614379614374846137c1565b614359565b6137c1565b9050919050565b6000819050919050565b61439883614363565b6143ac6143a482614385565b848454614307565b825550505050565b600090565b6143c16143b4565b6143cc81848461438f565b505050565b5b818110156143f0576143e56000826143b9565b6001810190506143d2565b5050565b601f82111561443557614406816142d5565b61440f846142ea565b8101602085101561441e578190505b61443261442a856142ea565b8301826143d1565b50505b505050565b600082821c905092915050565b60006144586000198460080261443a565b1980831691505092915050565b60006144718383614447565b9150826002028217905092915050565b61448a82613706565b67ffffffffffffffff8111156144a3576144a26139cc565b5b6144ad8254613e0b565b6144b88282856143f4565b600060209050601f8311600181146144eb57600084156144d9578287015190505b6144e38582614465565b86555061454b565b601f1984166144f9866142d5565b60005b82811015614521578489015182556001820191506020850194506020810190506144fc565b8683101561453e578489015161453a601f891682614447565b8355505b6001600288020188555050505b505050505050565b7f4552433732313a206f776e657220717565727920666f72206e6f6e657869737460008201527f656e7420746f6b656e0000000000000000000000000000000000000000000000602082015250565b60006145af602983613711565b91506145ba82614553565b604082019050919050565b600060208201905081810360008301526145de816145a2565b9050919050565b7f4552433732313a2062616c616e636520717565727920666f7220746865207a6560008201527f726f206164647265737300000000000000000000000000000000000000000000602082015250565b6000614641602a83613711565b915061464c826145e5565b604082019050919050565b6000602082019050818103600083015261467081614634565b9050919050565b7f5075626c6963206d696e742069732064697361626c6564000000000000000000600082015250565b60006146ad601783613711565b91506146b882614677565b602082019050919050565b600060208201905081810360008301526146dc816146a0565b9050919050565b7f416c7265616479206d696e74656420796f7572204e46542e0000000000000000600082015250565b6000614719601883613711565b9150614724826146e3565b602082019050919050565b600060208201905081810360008301526147488161470c565b9050919050565b600081905092915050565b600061476582613706565b61476f818561474f565b935061477f818560208601613722565b80840191505092915050565b6000614797828461475a565b915081905092915050565b7f546f6b656e20616c726561647920657869737473000000000000000000000000600082015250565b60006147d8601483613711565b91506147e3826147a2565b602082019050919050565b60006020820190508181036000830152614807816147cb565b9050919050565b7f4d696e74696e6720666565206973206e6f7420636f72726563742e2e00000000600082015250565b6000614844601c83613711565b915061484f8261480e565b602082019050919050565b6000602082019050818103600083015261487381614837565b9050919050565b7f4e487b7100000000000000000000000000000000000000000000000000000000600052601160045260246000fd5b60006148b4826137c1565b91506148bf836137c1565b9250827fffffffffffffffffffffffffffffffffffffffffffffffffffffffffffffffff038211156148f4576148f361487a565b5b828201905092915050565b7f4f776e61626c653a206e6577206f776e657220697320746865207a65726f206160008201527f6464726573730000000000000000000000000000000000000000000000000000602082015250565b600061495b602683613711565b9150614966826148ff565b604082019050919050565b6000602082019050818103600083015261498a8161494e565b9050919050565b7f4552433732313a206f70657261746f7220717565727920666f72206e6f6e657860008201527f697374656e7420746f6b656e0000000000000000000000000000000000000000602082015250565b60006149ed602c83613711565b91506149f882614991565b604082019050919050565b60006020820190508181036000830152614a1c816149e0565b9050919050565b7f4552433732313a207472616e736665722066726f6d20696e636f72726563742060008201527f6f776e6572000000000000000000000000000000000000000000000000000000602082015250565b6000614a7f602583613711565b9150614a8a82614a23565b604082019050919050565b60006020820190508181036000830152614aae81614a72565b9050919050565b7f4552433732313a207472616e7366657220746f20746865207a65726f2061646460008201527f7265737300000000000000000000000000000000000000000000000000000000602082015250565b6000614b11602483613711565b9150614b1c82614ab5565b604082019050919050565b60006020820190508181036000830152614b4081614b04565b9050919050565b6000614b52826137c1565b9150614b5d836137c1565b925082821015614b7057614b6f61487a565b5b828203905092915050565b7f5061757361626c653a206e6f7420706175736564000000000000000000000000600082015250565b6000614bb1601483613711565b9150614bbc82614b7b565b602082019050919050565b60006020820190508181036000830152614be081614ba4565b9050919050565b7f5061757361626c653a2070617573656400000000000000000000000000000000600082015250565b6000614c1d601083613711565b9150614c2882614be7565b602082019050919050565b60006020820190508181036000830152614c4c81614c10565b9050919050565b7f4552433732313a20617070726f766520746f2063616c6c657200000000000000600082015250565b6000614c89601983613711565b9150614c9482614c53565b602082019050919050565b60006020820190508181036000830152614cb881614c7c565b9050919050565b7f4552433732313a207472616e7366657220746f206e6f6e20455243373231526560008201527f63656976657220696d706c656d656e7465720000000000000000000000000000602082015250565b6000614d1b603283613711565b9150614d2682614cbf565b604082019050919050565b60006020820190508181036000830152614d4a81614d0e565b9050919050565b7f45524337323155524953746f726167653a2055524920717565727920666f722060008201527f6e6f6e6578697374656e7420746f6b656e000000000000000000000000000000602082015250565b6000614dad603183613711565b9150614db882614d51565b604082019050919050565b60006020820190508181036000830152614ddc81614da0565b9050919050565b6000614def828561475a565b9150614dfb828461475a565b91508190509392505050565b7f45524337323155524953746f726167653a2055524920736574206f66206e6f6e60008201527f6578697374656e7420746f6b656e000000000000000000000000000000000000602082015250565b6000614e63602e83613711565b9150614e6e82614e07565b604082019050919050565b60006020820190508181036000830152614e9281614e56565b9050919050565b600081519050919050565b600082825260208201905092915050565b6000614ec082614e99565b614eca8185614ea4565b9350614eda818560208601613722565b614ee381613755565b840191505092915050565b6000608082019050614f036000830187613856565b614f106020830186613856565b614f1d6040830185613945565b8181036060830152614f2f8184614eb5565b905095945050505050565b600081519050614f4981613677565b92915050565b600060208284031215614f6557614f64613641565b5b6000614f7384828501614f3a565b91505092915050565b7f4552433732314d657461646174613a2055524920717565727920666f72206e6f60008201527f6e6578697374656e7420746f6b656e0000000000000000000000000000000000602082015250565b6000614fd8602f83613711565b9150614fe382614f7c565b604082019050919050565b6000602082019050818103600083015261500781614fcb565b9050919050565b6000615019826137c1565b91507fffffffffffffffffffffffffffffffffffffffffffffffffffffffffffffffff820361504b5761504a61487a565b5b600182019050919050565b7f4e487b7100000000000000000000000000000000000000000000000000000000600052601260045260246000fd5b6000615090826137c1565b915061509b836137c1565b9250826150ab576150aa615056565b5b828204905092915050565b60006150c1826137c1565b91506150cc836137c1565b9250826150dc576150db615056565b5b828206905092915050565b7f4552433732313a206d696e7420746f20746865207a65726f2061646472657373600082015250565b600061511d602083613711565b9150615128826150e7565b602082019050919050565b6000602082019050818103600083015261514c81615110565b9050919050565b7f4552433732313a20746f6b656e20616c7265616479206d696e74656400000000600082015250565b6000615189601c83613711565b915061519482615153565b602082019050919050565b600060208201905081810360008301526151b88161517c565b9050919050565b7f4e487b7100000000000000000000000000000000000000000000000000000000600052603160045260246000fdfea2646970667358221220da97ea7cfb75f0c4b2a0699c06c9430c7780441f11ae9e8bc7a3da5e6fbc284c64736f6c634300080f0033",
  "immutableReferences": {},
  "source": "// SPDX-License-Identifier: MIT\npragma solidity ^0.8.0;\n\nimport \"@openzeppelin/contracts/security/Pausable.sol\";\nimport \"@openzeppelin/contracts/access/Ownable.sol\";\nimport \"@openzeppelin/contracts/token/ERC721/ERC721.sol\";\nimport \"@openzeppelin/contracts/token/ERC721/extensions/ERC721Enumerable.sol\";\nimport \"@openzeppelin/contracts/token/ERC721/extensions/ERC721URIStorage.sol\";\nimport \"@openzeppelin/contracts/token/ERC721/extensions/ERC721Burnable.sol\";\n\ncontract NFTArt is\n    ERC721,\n    ERC721Enumerable,\n    ERC721URIStorage,\n    Pausable,\n    ERC721Burnable,\n    Ownable\n{\n    uint256 private tokenIdTracker = 1;\n    string[] public nftList;\n    mapping(string => bool) nftExists;\n    string[] public nftWords;\n    uint256 public MAX_SUPPLY;\n    string public baseTokenURI;\n\n    // Events\n    event greet(uint256 indexed id);\n\n    bool public publicMintStatus = true;\n\n    // Set wallet restriction\n    bool public walletRestriction = true;\n    uint256 public walletRestrictionCount = 10;\n    uint256 private nftAmount = 0;\n\n    constructor(\n        string memory name,\n        string memory symbol,\n        address ownerAddress\n    ) ERC721(name, symbol) {\n        transferOwnership(ownerAddress);\n    }\n\n    function pause() public onlyOwner {\n        _pause();\n    }\n\n    function unpause() public onlyOwner {\n        _unpause();\n    }\n\n    function _baseURI() internal view virtual override returns (string memory) {\n        return baseTokenURI;\n    }\n\n    function setBaseURI(string memory baseURI) public onlyOwner {\n        baseTokenURI = baseURI;\n    }\n\n    function setPublicMint(bool _status) public onlyOwner {\n        publicMintStatus = _status;\n    }\n\n    function setWalletRestriction(uint256 _count, bool _status)\n        public\n        onlyOwner\n    {\n        walletRestriction = _status;\n        walletRestrictionCount = _count;\n    }\n\n    function setMaxSupply(uint256 _maxSupply) public onlyOwner {\n        MAX_SUPPLY = _maxSupply;\n    }\n\n    function setNFTAmount(uint256 _amount) public onlyOwner {\n        nftAmount = _amount;\n    }\n\n    function safeMint(\n        address _to,\n        string memory _tokenURI,\n        string memory _nftWord\n    ) external onlyOwner {\n        require(!nftExists[_tokenURI], \"Token already exists\");\n\n        nftList.push(_tokenURI);\n        uint256 tokenId = tokenIdTracker;\n\n        _safeMint(_to, tokenId);\n\n        tokenIdTracker = tokenIdTracker + 1;\n        nftExists[_tokenURI] = true;\n\n        _setTokenURI(tokenId, _tokenURI);\n        nftWords.push(_nftWord);\n\n        emit greet(tokenId);\n    }\n\n    function publicMinting(\n        address _to,\n        string memory _tokenURI,\n        string memory _nftWord\n    ) external payable {\n        require(publicMintStatus, \"Public mint is disabled\");\n        require(\n            balanceOf(_to) < walletRestrictionCount,\n            \"Already minted your NFT.\"\n        );\n        require(!nftExists[_tokenURI], \"Token already exists\");\n        require(nftAmount <= (msg.value), \"Minting fee is not correct..\");\n        payable(owner()).transfer(msg.value);\n        mintingInternal(_to, _tokenURI, _nftWord);\n    }\n\n    function mintingInternal(\n        address _to,\n        string memory _tokenURI,\n        string memory _nftWord\n    ) internal {\n        nftList.push(_tokenURI);\n\n        uint256 tokenId = tokenIdTracker;\n        _safeMint(_to, tokenId);\n\n        tokenIdTracker = tokenIdTracker + 1;\n        nftExists[_tokenURI] = true;\n\n        _setTokenURI(tokenId, _tokenURI);\n        nftWords.push(_nftWord);\n\n        emit greet(tokenId);\n    }\n\n    function _beforeTokenTransfer(\n        address from,\n        address to,\n        uint256 tokenId\n    ) internal override(ERC721, ERC721Enumerable) whenNotPaused {\n        super._beforeTokenTransfer(from, to, tokenId);\n    }\n\n    function burnToken(uint256 tokenId) public onlyOwner {\n        _burn(tokenId);\n    }\n\n    // The following functions are overrides required by Solidity.\n\n    function _burn(uint256 tokenId)\n        internal\n        override(ERC721, ERC721URIStorage)\n        onlyOwner\n    {\n        super._burn(tokenId);\n    }\n\n    function tokenURI(uint256 tokenId)\n        public\n        view\n        override(ERC721, ERC721URIStorage)\n        returns (string memory)\n    {\n        return super.tokenURI(tokenId);\n    }\n\n    function supportsInterface(bytes4 interfaceId)\n        public\n        view\n        override(ERC721, ERC721Enumerable)\n        returns (bool)\n    {\n        return super.supportsInterface(interfaceId);\n    }\n}\n",
  "sourcePath": "/Users/rahulbansal/Desktop/unstoppable/PreMarket/contracts/NFTArt.sol",
  "compiler": {
    "name": "solc",
    "version": "0.8.15+commit.e14f2714.Emscripten.clang"
  },
  "schemaVersion": "3.4.6",
  "updatedAt": "2022-06-28T08:44:31.886Z",
  "networkType": "ethereum",
  "devdoc": {
    "kind": "dev",
    "methods": {
      "approve(address,uint256)": {
        "details": "See {IERC721-approve}."
      },
      "balanceOf(address)": {
        "details": "See {IERC721-balanceOf}."
      },
      "burn(uint256)": {
        "details": "Burns `tokenId`. See {ERC721-_burn}. Requirements: - The caller must own `tokenId` or be an approved operator."
      },
      "getApproved(uint256)": {
        "details": "See {IERC721-getApproved}."
      },
      "isApprovedForAll(address,address)": {
        "details": "See {IERC721-isApprovedForAll}."
      },
      "name()": {
        "details": "See {IERC721Metadata-name}."
      },
      "owner()": {
        "details": "Returns the address of the current owner."
      },
      "ownerOf(uint256)": {
        "details": "See {IERC721-ownerOf}."
      },
      "paused()": {
        "details": "Returns true if the contract is paused, and false otherwise."
      },
      "renounceOwnership()": {
        "details": "Leaves the contract without owner. It will not be possible to call `onlyOwner` functions anymore. Can only be called by the current owner. NOTE: Renouncing ownership will leave the contract without an owner, thereby removing any functionality that is only available to the owner."
      },
      "safeTransferFrom(address,address,uint256)": {
        "details": "See {IERC721-safeTransferFrom}."
      },
      "safeTransferFrom(address,address,uint256,bytes)": {
        "details": "See {IERC721-safeTransferFrom}."
      },
      "setApprovalForAll(address,bool)": {
        "details": "See {IERC721-setApprovalForAll}."
      },
      "symbol()": {
        "details": "See {IERC721Metadata-symbol}."
      },
      "tokenByIndex(uint256)": {
        "details": "See {IERC721Enumerable-tokenByIndex}."
      },
      "tokenOfOwnerByIndex(address,uint256)": {
        "details": "See {IERC721Enumerable-tokenOfOwnerByIndex}."
      },
      "totalSupply()": {
        "details": "See {IERC721Enumerable-totalSupply}."
      },
      "transferFrom(address,address,uint256)": {
        "details": "See {IERC721-transferFrom}."
      },
      "transferOwnership(address)": {
        "details": "Transfers ownership of the contract to a new account (`newOwner`). Can only be called by the current owner."
      }
    },
    "version": 1
  },
  "userdoc": {
    "kind": "user",
    "methods": {},
    "version": 1
  }
}